:020000040000fa
:080000000002040000000000f2
:020000040000fa
:04000800fa020000f8
:020000040000fa
:04000c000c030000e1
:020000040000fa
:040010001c030000cd
:020000040000fa
:0400140002030000e3
:020000040000fa
:0400180014030000cd
:020000040000fa
:04001c00a405000037
:020000040000fa
:0400200024030000b5
:020000040000fa
:04002400a40500002f
:020000040000fa
:04002800a40500002b
:020000040000fa
:04002c00a405000027
:020000040000fa
:04003000a405000023
:020000040000fa
:04003400a40500001f
:020000040000fa
:04003800a40500001b
:020000040000fa
:04003c00a405000017
:020000040000fa
:04004000a405000013
:020000040000fa
:04004400a40500000f
:020000040000fa
:04004800a40500000b
:020000040000fa
:04004c00a405000007
:020000040000fa
:04005000a405000003
:020000040000fa
:04005400a4050000ff
:020000040000fa
:04005800a4050000fb
:020000040000fa
:04005c00a4050000f7
:020000040000fa
:04006000a4050000f3
:020000040000fa
:04006400a4050000ef
:020000040000fa
:04006800a4050000eb
:020000040000fa
:04006c005403000039
:020000040000fa
:04007000a4050000e3
:020000040000fa
:04007400a4050000df
:020000040000fa
:04007800a4050000db
:020000040000fa
:04007c00a4050000d7
:020000040000fa
:04008000a4050000d3
:020000040000fa
:04008400a4050000cf
:020000040000fa
:04008800a4050000cb
:020000040000fa
:04008c00a4050000c7
:020000040000fa
:04009000a4050000c3
:020000040000fa
:04009400a4050000bf
:020000040000fa
:04009800a4050000bb
:020000040000fa
:04009c00a4050000b7
:020000040000fa
:0400a000a4050000b3
:020000040000fa
:0400a400a4050000af
:020000040000fa
:0400a800a4050000ab
:020000040000fa
:0400ac00a4050000a7
:020000040000fa
:0400b000a4050000a3
:020000040000fa
:0400b400a40500009f
:020000040000fa
:0400b800a40500009b
:020000040000fa
:0400bc00a405000097
:020000040000fa
:0400c000a405000093
:020000040000fa
:0400c400a40500008f
:020000040000fa
:0400c800a40500008b
:020000040000fa
:0400cc00a405000087
:020000040000fa
:0400d000a405000083
:020000040000fa
:0400d400a40500007f
:020000040000fa
:0400d800a40500007b
:020000040000fa
:0400dc00a405000077
:020000040000fa
:0400e000a405000073
:020000040000fa
:0400e400a40500006f
:020000040000fa
:0400e800a40500006b
:020000040000fa
:0400ec00a405000067
:020000040000fa
:0400f000a405000063
:020000040000fa
:0400f400a40500005f
:020000040000fa
:0400f800a40500005b
:020000040000fa
:0400fc00a405000057
:020000040000fa
:04010000a405000052
:020000040000fa
:04010400a40500004e
:020000040000fa
:04010800a40500004a
:020000040000fa
:04010c00a405000046
:020000040000fa
:04011000a405000042
:020000040000fa
:04011400a40500003e
:020000040000fa
:04011800a40500003a
:020000040000fa
:04011c00a405000036
:020000040000fa
:04012000a405000032
:020000040000fa
:04012400a40500002e
:020000040000fa
:04012800a40500002a
:020000040000fa
:04012c00a405000026
:020000040000fa
:04013000a405000022
:020000040000fa
:04013400a40500001e
:020000040000fa
:04013800a40500001a
:020000040000fa
:04013c00a405000016
:020000040000fa
:04014000a405000012
:020000040000fa
:04014400a40500000e
:020000040000fa
:04014800a40500000a
:020000040000fa
:04014c00a405000006
:020000040000fa
:04015000a405000002
:020000040000fa
:04015400a4050000fe
:020000040000fa
:04015800a4050000fa
:020000040000fa
:04015c00a4050000f6
:020000040000fa
:04016000a4050000f2
:020000040000fa
:04016400a4050000ee
:020000040000fa
:04016800a4050000ea
:020000040000fa
:04016c00a4050000e6
:020000040000fa
:04017000a4050000e2
:020000040000fa
:04017400a4050000de
:020000040000fa
:04017800a4050000da
:020000040000fa
:04017c00a4050000d6
:020000040000fa
:04018000a4050000d2
:020000040000fa
:04018400a4050000ce
:020000040000fa
:04018800a4050000ca
:020000040000fa
:04018c00a4050000c6
:020000040000fa
:04019000a4050000c2
:020000040000fa
:04019400a4050000be
:020000040000fa
:04019800a4050000ba
:020000040000fa
:04019c00a4050000b6
:020000040000fa
:0401a000a4050000b2
:020000040000fa
:0401a400a4050000ae
:020000040000fa
:0401a800a4050000aa
:020000040000fa
:0401ac00a4050000a6
:020000040000fa
:0401b000a4050000a2
:020000040000fa
:0401b400a40500009e
:020000040000fa
:0401b800a40500009a
:020000040000fa
:0401bc00a405000096
:020000040000fa
:0401c000a405000092
:020000040000fa
:0401c400a40500008e
:020000040000fa
:0401c800a40500008a
:020000040000fa
:0401cc00a405000086
:020000040000fa
:0401d000a405000082
:020000040000fa
:0401d400a40500007e
:020000040000fa
:0401d800a40500007a
:020000040000fa
:0401dc00a405000076
:020000040000fa
:0401e000a405000072
:020000040000fa
:0401e400a40500006e
:020000040000fa
:0401e800a40500006a
:020000040000fa
:0401ec00a405000066
:020000040000fa
:0401f000a405000062
:020000040000fa
:0401f400a40500005e
:020000040000fa
:0401f800a40500005a
:020000040000fa
:0401fc00a405000056
:020000040000fa
:04020000a405000051
:020000040000fa
:04020400a40500004d
:020000040000fa
:04020800a405000049
:020000040000fa
:04020c00a405000045
:020000040000fa
:04021000a405000041
:020000040000fa
:04021400a40500003d
:020000040000fa
:04021800a405000039
:020000040000fa
:04021c00a405000035
:020000040000fa
:04022000a405000031
:020000040000fa
:04022400a40500002d
:020000040000fa
:04022800a405000029
:020000040000fa
:04022c00a405000025
:020000040000fa
:04023000a405000021
:020000040000fa
:04023400a40500001d
:020000040000fa
:04023800a405000019
:020000040000fa
:04023c00a405000015
:020000040000fa
:04024000a405000011
:020000040000fa
:04024400a40500000d
:020000040000fa
:04024800a405000009
:020000040000fa
:04024c00a405000005
:020000040000fa
:04025000a405000001
:020000040000fa
:04025400a4050000fd
:020000040000fa
:04025800a4050000f9
:020000040000fa
:04025c00a4050000f5
:020000040000fa
:04026000a4050000f1
:020000040000fa
:04026400a4050000ed
:020000040000fa
:04026800a4050000e9
:020000040000fa
:04026c00a4050000e5
:020000040000fa
:04027000a4050000e1
:020000040000fa
:04027400a4050000dd
:020000040000fa
:04027800a4050000d9
:020000040000fa
:04027c00a4050000d5
:020000040000fa
:04028000a4050000d1
:020000040000fa
:04028400a4050000cd
:020000040000fa
:04028800a4050000c9
:020000040000fa
:04028c00a4050000c5
:020000040000fa
:04029000a4050000c1
:020000040000fa
:04029400a4050000bd
:020000040000fa
:04029800a4050000b9
:020000040000fa
:04029c00a4050000b5
:020000040000fa
:0402a000a4050000b1
:020000040000fa
:0402a400a4050000ad
:020000040000fa
:0402a800a4050000a9
:020000040000fa
:0402ac00a4050000a5
:020000040000fa
:0402b000a4050000a1
:020000040000fa
:0402b400a40500009d
:020000040000fa
:0402b800a405000099
:020000040000fa
:0402bc00a405000095
:020000040000fa
:0402c000a405000091
:020000040000fa
:0402c400a40500008d
:020000040000fa
:0402c800a405000089
:020000040000fa
:0402cc00a405000085
:020000040000fa
:0402d000a405000081
:020000040000fa
:0402d400a40500007d
:020000040000fa
:0402d800a405000079
:020000040000fa
:0402dc00a405000075
:020000040000fa
:0402e000a405000071
:020000040000fa
:0402e400a40500006d
:020000040000fa
:0402e800a405000069
:020000040000fa
:0402ec00a405000065
:020000040000fa
:0402f000a405000061
:020000040000fa
:0402f400a40500005d
:020000040000fa
:0402f800a405000059
:020000040000fa
:100400002f0521000eff22000e01880000000000d1
:10041000000020000000e000020032000001200087
:100420002002880014000700c90107000000e00056
:1004300003003a00a0a020000100200002003700c5
:100440000000200001002000810f70000100320038
:100450000f000700000020000000e0000200320052
:100460000000020000000000ce09020000000000b1
:100470000040da000000fe00400120000000e00023
:1004800002003200002020009001880000000600d9
:10049000a1028800800478000000eb001f003700f4
:1004a000e284440054a0b4009905ba00e2844400f8
:1004b00054a0b4009906ba00e284440054a0b400e9
:1004c0000006eb00476fde00fd07b200ae018800ba
:1004d000636ce10003003a000ad801000000eb0061
:1004e0000e003700606ce10008003a00004deb00a0
:1004f0000a05e800020039003420ec000af0a000f0
:100500008b05e900f9ff3e00040037006168e10057
:10051000010032000086eb000b00070019c7ba008b
:100520000e04e0001905ba0003003a000a00e000da
:10053000dbff3a0000000600fe07b200ae028800b2
:100540008a047800f5ff37000cd0a300e20f4d00bd
:100550001c00390089027800354dba000a05e80010
:10056000020039003420ec000af0a0008b05e900fd
:100570000f003200254dba000a05e80002003900dc
:100580003420ec000af0a0008b05e90008003200de
:100590000c00e0000600320015cdba000a05e800a4
:1005a000020039003420ec000af0a0008b05e900bd
:1005b0008984e80054a0b4000b00e000e2ff3a0098
:1005c000000006009902ba00055d78008b05e9007d
:1005d000f7ff3200c82ade00055d78008b05e900d0
:1005e000f3ff32000c00e000f1ff320019ddba0029
:1005f000eeff37003600f800c028a9000000eb002d
:10060000b00307003600f800b2030700c048a90095
:1006100010002000ab0307003600f800c068a900f6
:1006200020002000a70307003600f800c088a900ba
:1006300030002000a30307003600f800c608a90018
:10064000700020009f0307003600f800214680005c
:1006500000102000008060000000e0000300320075
:10066000c508a900c00020009603070020468000ae
:10067000700060000000e00003003200c488a900a0
:10068000a00020008f03070020468000610060006a
:100690000000e00003003200c408a900b000200000
:1006a00088030700ffff37003600f800809fbe0078
:1006b000829fbe00849fbe00869fbe000000fa009d
:1006c0000228a9002110800000082000008060009e
:1006d0000000e0000800320004e2a9000830ef004a
:1006e00070808000200090008000eb0001087800fe
:1006f0000e30ef000d013700408080008000eb00dd
:10070000b200200003002000820f5000838f5800a9
:10071000fc003e00000601000b00370039003700e6
:10072000750037009c003700f3003700c800370021
:10073000d9003700f0003700db003700f100370048
:1007400034003700500037000000210020009000e6
:10075000620060000000e000f3003a0000002100a9
:1007600010009000708088000000210010009000b0
:10077000104078000af0b70000002100100090003f
:1007800010009000608088000000210010009000a0
:10079000e600400000002100110098000000210048
:1007a0009000900060042100808f500003003a0008
:1007b0000000210001042100110098000000210028
:1007c000a00090000100a10021009800000021007d
:1007d000900090000000210010007800808f5000f1
:1007e00004003a0000002100a00090000110a000c9
:1007f000210098000002a80020002000408088000e
:10080000ca0037000022a800200020004080880095
:10081000c600370021108000000028000080600022
:100820000000e0000800320000002100604090005d
:100830008040e80000002100614098004000200056
:1008400001010700b9003700808080008000d100de
:10085000f00f200000806000601088008080800021
:1008600061006000004078000004e00003003200f6
:10087000b000200040808800ac003700300020002d
:1008800040808800a9003700211080000000280067
:10089000008060000000e00008003200000021003d
:1008a000604090008040e800000021006140980016
:1008b00040002000e40007009c0037000022a80050
:1008c000808080004800de00e6006000000f20000d
:1008d0000100700080808800808080000000a000ff
:1008e0008080880010c0b30012f0b7002000200004
:1008f000408088008d00370012d0bf00e14f5000cb
:100900000a0032006080800010007800808088003b
:100910006080800020009000a080880060808000bf
:100920002040900016f0b700010037001270ef0071
:1009300081808000f00f2000808f50000900360079
:10094000808080004800de00e6006000000f20008c
:100950000100700060108800a00020004080880026
:1009600072003700808080006010880080808000e6
:1009700061006000004078000004e00003003200e5
:1009800050002000408088006800370030002000c0
:10099000408088006500370021108000000028009a
:1009a000008060000000e00009003200000021002b
:1009b000604090008040e800000021006140980005
:1009c00005e2a900500020009f00070057003700f3
:1009d00016d0bf008080fb008100e900cf08de0058
:1009e000814078000040e90016f0b7000104e00003
:1009f0001000320060808000660040006080880047
:100a00000ad0bf000040e9000af0b7000ad0bf00da
:100a10000004e00003003a00200020008a000700e4
:100a2000420037000022a8002000200040808800fb
:100a30003e003700a0808000904078008180fb005d
:100a4000611088000000e800a080880037003700af
:100a50002110800000002800008060000000e000fd
:100a60000900320000002100604090008040e80052
:100a70000000210061409800400020007200070043
:100a800005e2a900290037000062a80080002000cc
:100a900040808800250037008000200040808800ca
:100aa0000062a80021003700a08080007110800043
:100ab00081407800014878000000e800a0808800ac
:100ac00016d0bf000040e90016f0b70016d0bf00f6
:100ad0000004e0000400320000a2a9006000200031
:100ae000408088000200370000a2a80045000700ef
:100af0000082a8000d0037002000200052000700ef
:100b00000a00370000002100604090008040e800ab
:100b10000000210061409800600020004a000700aa
:100b20000000000001003700000000000080fa0013
:100b30004f03be004f02be004f01be004f00be007b
:100b40003600f900004006000040da000000fe0018
:040b5000000005009c
:020000040000fa
:100b54000a0b00000c0d00004d6500006d6f0000d5
:100b64007279000020450000727200006f7200006c
:080b7400000000000800000071
:020000040000fa
:100b7c000000fa000000210001042100110098007f
:100b8c000000210001042100010878000000210070
:100b9c00a00090000110a00021009800000021008e
:100bac00a00090000100a10021009800000021008d
:100bbc008040eb006140980020012000501088001c
:100bcc0000002800001088000422ef000228a90071
:100bdc002228a8000080fa00000006000200fa009b
:100bec0000002100e0409000014f78001e4078008a
:100bfc000080fa00000006000000fa00608080000f
:100c0c0066004000608088000ad0bf000040e90008
:100c1c000af0b7000ad0bf000004e00003003a005d
:100c2c0040002000408088000200370010002000a7
:100c3c00408088000080fa00000006000200fa00e4
:100c4c00000f78000042a800708080002000900007
:100c5c000000e00003003200708080002000900053
:100c6c001e0878000830ef000080fa000000060033
:100c7c000800fa00000f780021479800220798001e
:100c8c0033079800000021002000900061006000f4
:100c9c000000e0000a003a00ae0190002e419000e6
:100cac009e007800c0042100770007003e019000f0
:100cbc00c104210010c0b3001f000700030037005f
:100ccc003e0090008000eb00010878000080fa00e4
:100cdc00000006000800fa00000f78002147980079
:100cec002207980033079800000021002000900094
:100cfc00610060000000e0000a003a00ae019000c4
:100d0c002e4190009e0078006004210046000700f0
:100d1c003e0190006104210010c0b30006000700e2
:100d2c00030037003e0090008000eb0001087800c3
:100d3c000080fa00000006000600fa00004f780060
:100d4c001107980022079800000021002000900055
:100d5c00610060000000e0002e003a002e009000c0
:100d6c00110020000108780000002100100078001c
:100d7c009e009000110098000000210010007800e7
:100d8c001e4878000000210010007800ae00900092
:100d9c00210098000000210010007800e6004000bf
:100dac00000021000108780000002100900078006c
:100dbc0060042100808f500003003a0000002100e5
:100dcc00010421000108780000002100a00090001f
:100ddc000110a1002100980000002100900090005b
:100dec000000210010007800808f500004003a00b1
:100dfc0000002100a00090000100a000210098003c
:100e0c00408080000000e00005003a000228a800a5
:100e1c00030037002e0090008000eb0001087800e2
:100e2c000080fa00000006000800fa00000f7800ad
:100e3c001107980042479800330798003e00900035
:100e4c0000004000800078001e0078000108780047
:100e5c001e00780010007800800078000100a000cf
:100e6c001e007800010878001e007800ce4090002b
:100e7c00214098001e0078009e00900021009800f0
:100e8c000080fa00000006000800fa00000f78004d
:100e9c001107980042479800330798003e009000d5
:100eac0000004000800078001e00780001087800e7
:100ebc001e007800ce409000214098001e00780063
:100ecc009e009000210098000080fa0000000600af
:100edc000000fa0000002100200090000000d1006a
:100eec00614060000080fb0000f0a7000000ea00f9
:100efc000000ea004f00de00004078000080fa009d
:100f0c00000006000000fa00000021002000900004
:100f1c00614060000080fb0000f0a7000000ea00c8
:100f2c000000ea004f00de00004078000080fa006c
:100f3c00000006000000fa00c3e8a8000000000052
:100f4c00000000000080fa00000006000200fa0019
:100f5c00000f780021028000200f2000008060002c
:100f6c001e007000200288000080fa0000000600bd
:100f7c000000fa00db000700070007004101070032
:100f8c00fbfe0700ebff070000022000efff07004d
:100f9c000080fa00000006000000fa000001eb00df
:100fac006004200071052000237420008049780023
:100fbc00814978008249780000002300203a88009b
:100fcc004827ef004e27ef004fe7a8004f87a800f7
:100fdc0040042000303a880000782200803a8800d3
:100fec004c27ef000080fa00000006000000fa0019
:100ffc00003a80000080fa00000006000200fa00af
:10100c00faff0700000f78001e007800240007008c
:10101c000004e0000200320000002800710007000c
:10102c001e0078002a0007000004e00002003200d5
:10103c00000024006b0007001e007800320007003f
:10104c000004e000020032000020200065000700d0
:10105c001e0078003a0007000004e0000200320095
:10106c00000820005f0007001e0078004200070007
:10107c000004e000020032000004200059000700c8
:10108c001e0078004a0007000004e0000200320055
:10109c0000012000530007000080fa000000060049
:1010ac000400fa00100798000040eb00004f780095
:1010bc001e0090000000e00002003d0010c0b300d4
:1010cc00004f78001e4078000080fa0000000600f7
:1010dc000400fa00100798000040eb00004f780065
:1010ec009e00900000002400008060000000e000e2
:1010fc000200320010c0b300004f78001e40780090
:10110c000080fa00000006000400fa0010079800a6
:10111c000040eb00004f78009e0090000020200063
:10112c00008060000000e0000200320010c0b3003c
:10113c00004f78001e4078000080fa000000060086
:10114c000400fa00100798000040eb00004f7800f4
:10115c009e00900000082000008060000000e0006d
:10116c000200320010c0b300004f78001e4078001f
:10117c000080fa00000006000400fa001007980036
:10118c000040eb00004f78009e009000000420000f
:10119c00008060000000e0000200320010c0b300cc
:1011ac00004f78001e4078000080fa000000060016
:1011bc000400fa00100798000040eb00004f780084
:1011cc001e009000700060000000e0000200320081
:1011dc0010c0b300004f78001e4078000080fa0069
:1011ec00000006000200fa00000f78009e80ea0062
:1011fc00003a800000806000003a88000080fa000d
:10120c00000006000000fa004027ef000080fa0002
:10121c00000006000200fa00000f7800c05b2800f6
:10122c00104078000080fb00c30121000001780011
:10123c0031c0b3001e0078008dfe07000080fa005c
:10124c00000006000200fa00000f7800c05b2800c6
:10125c00104078000080fb00a30121000001780001
:10126c00d1c0b3001e00780081fe07000080fa0098
:10127c00000006000200fa00000f78001e00780043
:10128c00c1c0b300014878001e00e8008040eb00ac
:10129c00014878001e80e8008040eb00014878008f
:1012ac000080fa00000006000200fa00000f78002f
:1012bc0083012100a200200001c1b3001e007800b0
:1012cc006bfe0700c08080000000e00002003a00c6
:1012dc000040eb000100370010c0b3000080fa00a2
:1012ec00000006000000fa00042eef00142eef00a0
:1012fc00f001200000708800b0ff2d008070880085
:10130c000c2eef001c2eef000a2eef001a2eef0011
:10131c00062eef00162eef00500020007070880093
:10132c00d0612000f0708800113a8000f00b200092
:10133c0000816000600420007105200023742000ef
:10134c00804978008149780082497800e133800037
:10135c00f00f2c0080806000001023000100700052
:10136c00e0338800103a8000000178000260a00091
:10137c00600420007105200023742000804978004f
:10138c0081497800824978000080fa00000006004c
:10139c002400fa00f6fe0700c0c0b300004f78002e
:1013ac0070c0b300104798000040eb002047980035
:1013bc009e407800314798009e409000414798002d
:1013cc00ae40900051479800e60047000700090026
:1013dc008018eb00e05a2800f60047000c000900ca
:1013ec00b0587800d000b10063004700a1ff07009f
:1013fc006300470087ff070000902000d103200006
:08140c0012000700f8ff370091
:020000040000fa
:101414002010000020000000800000001e100000ca
:101424000200000082000000ffff000040100000e6
:1014340012000000800000000010000018000000ee
:10144400800000001810000006000000800000006a
:041454000000000094
:020000040000fa
:10145800f03fb1000180b10006003500ee0309003d
:1014680000000000403fb1000180b100fbff3d00db
:101478001000b000203fb0000200350000800900d5
:08148800000000000000060056
:020000040000fa
:101490000000fa0041428000f0f82f000080600058
:1014a0000040a000404288004142800080ff2f00a1
:1014b000008060000000a000404288000080fa0028
:1014c00000000600000f78009e007800f180880080
:1014d000ffff37000000fa000002210080077800bb
:1014e00080032100000188000080fa00000006004f
:020000040000fa
:020000040001f9
:045f0000ffff00009f
:020000040000fa
:020000040001f9
:045f3000faffff0075
:020000040000fa
:020000040001f9
:045f380079ffff00ee
:020000040000fa
:020000040001f9
:045f40009fffff00c0
:020000040000fa
:020000040001f9
:045f5000ddffff0072
:020000040000fa
:020000040001f9
:045f5800ffffff0048
:020000040000fa
:020000040001f9
:045f6000ffffff0040
:020000040000fa
:020000040001f9
:045ff800ff0f000097
:020000040000fa
:020000040100f9
:04200000ffff0000de
:00000001FF
